:10086B00434142494E2043414C4C205359530025A0
:10087B006400545950453A204E4F4E4520202020BD
:10088B0000534541543A202D0054494D453A202DF3
:10089B002D002D2D00000000000000000000004E78
:1008AB004F4E4520202020200045434F4E4F4D59A1
:0D08BB00202000425553494E455353200064
:10054900E4F524F52578267C00FD7BFF7A08799D62
:10055900FE7F0312043A78297C007D007BFF7A082C
:1005690079A07E007F0A12043AE4F53578367C00DA
:10057900FD7BFF7A0879AAFE7F1E12043AC2B612E1
:100589000B327BFF7A08796B7D017F01120A187F94
:100599002C7E01120AD7120B4C755700755800753D
:1005A90059237B007A00792212070BE5226036E590
:1005B900236032E52545246005E522B40227C2B748
:1005C900E52275F005A424232523F87601E522B454
:1005D9000211E52314FF7401A807088002C333D868
:1005E900FCF535D2B7E53560057534018003E4F5CE
:1005F90034E4F533E53475F005A424292533F8E608
:100609006055E5254524704FE53475F005A4242986
:100619002533F8E4F6E534B40112AF337401A807C1
:10062900088002C333D8FCF452358003E4F535E47D
:10063900F524F525120AC0E53475F00AA42440F919
:10064900E4FAFBFD7F06120A18E5332431FB7D012C
:100659007F06120B3C80090533E533C394054094AA
:10066900120003EF6061B2B5B2B70525E525700246
:1006790005247557FF75580875597AAE24FF7C0013
:100689007D0A12048B7C007D0A12048B8C5A8D5BC7
:100699007B007A00792612006A7557FF755808752C
:1006A900597AAE24AF257C007D0A12048B8C5A8DB1
:1006B9005B7B007A00792712006A7B007A00792631
:1006C9007D017F0E120A1830B6030205A2C2AFD20D
:1006D900B6D2B5D2B7E4F524F5257BFF7A08797D42
:1006E900FDFF120A187BFF7A08798C7D01E4FF125D
:1006F9000A187BFF7A0879947D017F08120A18028B
:0207090005A247
:0A0B32007BFF7A0A79D712099B2293
:090B18007F01120B21D2A07F0520
:040B210000DFFD22D2
:100B0400D2A1120B18C2A17F05120B21C2A07F0231
:040B1400120B21227D
:0D0B2500C2A1120B18D2A17F04120B2122D5
:0208C800AE0779
:1008CA00E4FD7C01EEA805088002C333D8FC30E7BA
:1008DA0004D2A18002C2A1120B18C2A00DBD08E465
:1008EA007F02120B21D2A17F02120B21D2A07F0319
:1008FA00120B2130A102E4FCC2A07F02120B21AF2D
:01090A0004E8
:01090B0022C9
:10090C00E4FEFDD2A17F01120B21C2A07F05120BC8
:10091C0021D2A07F02120B21EE25E0FE30A1060EA3
:10092C007F02120B210DBD08DCC2A07F02120B212D
:02093C00AF0604
:01093E002296
:100AEE00EF6004C2A18002D2A17F03120B1AC2A032
:060AFE007F02120B212211
:03000B0002096F78
:10096F00C0E0C0D075D000C006758A67758CFCE5F5
:10097F000A150AAE09700215094E7009750903753B
:0C098F000AE8750801D006D0D0D0E03294
:05000300AF08E4F50860
:0100080022D5
:100AC000758901758A67758CFCD28CD2A9D2AFE486
:070AD000F509F50AF5082203
:050B4600030B0000009C
:0F09C700850D82850C837F057E001204E47F3846
:1009D6008F58850D82850C837F017E001204E4D238
:0B09E600A6C2A4C2A5855880C2A622AC
:100AA5008F57850D82850C837F017E001204E4D269
:0B0AB500A6D2A4C2A5855780C2A622CD
:100A6100ED7007EF2480F5578005EF24C0F557AFEF
:100A7100571209D6850D82850C837F017E001204F1
:010A8100E490
:010A82002251
:0A0B3C008B54120A61AF54020AA59F
:100A18008B548A558956120A61AB54AA55A95612A5
:100A28000460FF6010120AA574012556F556E435D6
:060A380055F55580E42293
:050B4C007F010209D643
:10099B008B0B8A0C890D7F381209D61209C71209E5
:1009AB00C7850D82850C837F057E001204E47F0CC6
:0C09BB001209D67F061209D6120B4C223E
:06070B008B548A5589564B
:10071100E4F55A120479AB57AA58A959120479750C
:10072100901FE590641F70030207DE7F0A7E0012AE
:100731000AD7E590641F70030207DEE4F55A75904D
:100741001FAF90EF24F1603724F8602924FC601B6F
:1007510024FE600D147032AB57AA58A95974018058
:100761002FAB57AA58A95974028025AB57AA58A98B
:10077100597403801BAB57AA58A95974048011AB53
:1007810057AA58A95974058007AB57AA58A959E423
:10079100120479759060AF90EF24E0600A24C06084
:1007A1000424207016800AAB54AA55A956740180FE
:1007B10011AB54AA55A95674028007AB54AA55A986
:1007C10056E4120479E55AC394325011E5906460FD
:0D07D100600B7F0A7E00120AD7055A80E8EF
:0107DE0022F8
:06093F008F0E8D0F8B10DE
:10094500120B04AF0E1208C8EF60037F0022AF0F31
:100955001208C8EF60037F0022AF101208C8EF60CD
:09096500037F0022120B257F0123
:01096E002266
:040A3E008F118D1275
:100A4200120B04AF111208C8EF60037F0022AF122D
:0E0A52001208C8EF60037F0022120B257F01FF
:010A60002273
:020A83008F13CF
:100A8500120B04E51304FF1208C8EF60037F002270
:0F0A950012090C8F147F01120AEE120B25AF14F9
:010AA400222F
:100AD7007D807C04ED1D70011C144C70F7EF1F70B6
:060AE700011E144E70EA2E
:010AED0022E6
:030000000207DF15
:0C07DF00787FE4F6D8FD758167020826DB
:1007EB00020549E493A3F8E493A34003F68001F2D6
:1007FB0008DFF48029E493A3F85407240CC8C3330F
:10080B00C4540F4420C8834004F456800146F6DFDD
:10081B00E4800B0102040810204080900B46E47E1C
:10082B00019360BCA3FF543F30E509541FFEE493D2
:10083B00A360010ECF54C025E060A840B8E493A399
:10084B00FAE493A3F8E493A3C8C582C8CAC583CAC4
:10085B00F0A3C8C582C8CAC583CADFE9DEE780BE7C
:010B4B0000A9
:10036A00E709F608DFFA8046E709F208DFFA803E75
:10037A0088828C83E709F0A3DFFA8032E309F60862
:10038A00DFFA8078E309F208DFFA807088828C83CA
:10039A00E309F0A3DFFA806489828A83E0A3F6087E
:1003AA00DFFA805889828A83E0A3F208DFFA804C58
:1003BA0080D280FA80C680D4806980F2803380102F
:1003CA0080A680EA809A80A880DA80E280CA803398
:1003DA0089828A83ECFAE493A3C8C582C8CCC58310
:1003EA00CCF0A3C8C582C8CCC583CCDFE9DEE780E0
:1003FA000D89828A83E493A3F608DFF9ECFAA9F05F
:10040A00EDFB2289828A83ECFAE0A3C8C582C8CCB4
:10041A00C583CCF0A3C8C582C8CCC583CCDFEADECD
:10042A00E880DB89828A83E493A3F208DFF980CC2F
:10043A0088F0EF60010E4E60C388F0ED2402B40428
:10044A000050B9F582EB2402B4040050AF232345CF
:06045A0082239003BA7337
:10046000BB010689828A83E0225002E722BBFE029A
:09047000E32289828A83E49322CD
:10047900BB010689828A83F0225002F722BBFE0162
:02048900F3225C
:10048B00BC000BBE0029EF8DF084FFADF022E4CC55
:10049B00F875F008EF2FFFEE33FEEC33FCEE9DEC1E
:1004AB00984005FCEE9DFE0FD5F0E9E4CEFD22ED64
:1004BB00F8F5F0EE8420D21CFEADF075F008EF2FAE
:1004CB00FFED33FD4007985006D5F0F222C398FD9F
:0504DB000FD5F0EA223C
:0604E0008A838982E473A7
:10000E00E5632457F8E605632278543007027857E3
:10001E00E475F0011205130204602000EB7F2ED26E
:10002E00008018EF540F2490D43440D4FF30040BCA
:10003E00EF24BFB41A0050032461FFE5646002157B
:10004E00640567E5677002056630070D7854E47540
:10005E00F001120513EF0204790209F17403D207BD
:10006E008003E4C207F5638B548A558956E4F56420
:10007E00F566F567E56460077F2012004980F57527
:10008E0065FFC201C200C202C203C205C206C20897
:10009E00120017FF700D3007057F0012005AAF6770
:1000AE00AE6622B4255FC2D5C204120017FF24D05B
:1000BE00B40A00501A75F00A786430D50508B6FFF8
:1000CE000106C6A426F620D5047002D20380D924D8
:1000DE00CFB41A00EF5004C2E5D20402025AD20184
:1000EE0080C6D20080C0D20280BCD2D580BAD205E2
:1000FE0080B47F201200492002077401B5640040CD
:10010E00F112000EFF120049020082D208D20680C0
:10011E009512000EFB12000EFA12000EF94A4B70E9
:10012E0006792B7A037BFF20022EE564602A7E007F
:10013E008E827583001204E660060EEE656570F021
:10014E00C2D5EBC0E0EAC0E0E9C0E0EE1202A1D0F9
:10015E00E0F9D0E0FAD0E0FB120460FF60AAEBC039
:10016E00E0EAC0E0E9C0E0120049D0E02401F9D095
:10017E00E03400FAD0E0FBE5650460DCD565D9809B
:10018E00877BFF7A02799DD202809C79108002795A
:10019E0008C206C2088008D2D5790A8004790AC23C
:1001AE00D5E565047002F565E4FAFDFEFF12000E5A
:1001BE00FC7B0820011312000EFD7B1030000A128A
:1001CE00000EFE12000EFF7B20EC3382D592D5502E
:1001DE0013C3E43000069FFFE49EFEE42001039D5E
:1001EE00FDE49CFCE4CBF8C201EC700CCFCECDCC80
:1001FE00E824F8F870F38017C3EF33FFEE33FEED0B
:10020E0033FDEC33FCEB33FB994002FB0FD8E9EBEB
:10021E00300105F8D0E0C448B201C0E00AEC4D4E02
:10022E004F78207B0070C2EAB5650040BCC0E0127A
:10023E0002A3D0F0D0E0200104C4C0E0C4B201C0DB
:10024E00F0120032D0F0D5F0EB020082120523013D
:10025E001F5301995800F04C00EC42019D4F01A52F
:0F026E004401A54901054301AB55018F46018F9E
:10027D0045018F47034B5000F42D00F82E011B2B29
:10028D0000FC2301192003342A00B4480000011397
:10029D003F3F3F00790AA2D5200314300509B9105C
:1002AD00020404B9080104A2D5200602500104205D
:1002BD0002689202B564005034C0E07F203003190B
:1002CD007F30A20272067205500F1202FAC202C2EC
:1002DD0006C205C2087F30800F300503E9C0E01269
:1002ED000049300503D0E0F9D0E0B564CC300517F6
:1002FD007F30B9100C1200497F583004077F788089
:10030D0003B908031200493002057F2D0200497F11
:10031D00202008F87F2B2006F322920280CF286E32
:10032D00756C6C2900D20112000E3001F8C20178F3
:10033D006430D50108F60200B42D5043495812001F
:10034D000E2403B405004001E49003469312003AD5
:0D035D00743A12003AD2037564040201994B
:1004E600BB010CE58229F582E5833AF583E02250CB
:1004F60006E92582F8E622BBFE06E92582F8E22215
:0D050600E58229F582E5833AF583E493222E
:10051300FAE6FB0808E6F925F0F618E6CA3AF622E9
:10052300D083D082F8E4937012740193700DA3A367
:1005330093F8740193F5828883E47374029368607B
:06054300EFA3A3A380DF7B
:1009F100EFB40A07740D1209FC740A309811A89912
:100A0100B8130CC2983098FDA899C298B811F63065
:070A110099FDC299F599223D
:00000001FF
